:100000000C9463000C948B000C948B000C94A4044F
:100010000C94A4040C94A4040C948B000C948B00FA
:100020000C948B000C948B000C948B000C948B0024
:100030000C948B000C948B000C948B000C948B0014
:100040000C9402040C948B000C9472040C944C04D9
:100050000C948B000C948B000C948B000C948B00F4
:100060000C948B000C948B000000000024002700EF
:100070002A0000000008000201000003040700003D
:1000800000000000000000000000230026002900FE
:1000900000000000250028002B00040404040404D0
:1000A0000404020202020202030303030303010227
:1000B00004081020408001020408102001020408F6
:1000C00010201C05850711241FBECFEFD8E0DEBF2E
:1000D000CDBF22E0A4E2B1E001C01D92AA34B20774
:1000E000E1F711E0A0E0B1E0ECE9FFE002C005902B
:1000F0000D92A432B107D9F710E0C2E6D0E004C0F7
:100100002197FE010E94BB07C136D107C9F70E94A3
:10011000C7050C94C1070C940000833081F028F4CB
:10012000813099F08230A9F008958730A9F08830A5
:10013000C9F08430B1F4809180008F7D03C080913C
:1001400080008F7780938000089584B58F7784BD79
:10015000089584B58F7DFBCF8091B0008F77809319
:10016000B00008958091B0008F7DF9CF1F93CF9399
:10017000DF93282F30E0F901EE58FF4F8491F90109
:10018000E255FF4FD491F901E656FF4FC491CC23BD
:10019000A9F0162F81110E948D00EC2FF0E0EE0FD8
:1001A000FF1FE057FF4FA591B4918FB7F894EC91E2
:1001B000111108C0D095DE23DC938FBFDF91CF9162
:1001C0001F910895DE2BF8CFCF93DF9390E0FC01D1
:1001D000E255FF4F249186569F4FFC01849188235E
:1001E000D1F090E0880F991FFC01E859FF4FA591CD
:1001F000B491FC01E057FF4FC591D49161110EC03D
:100200009FB7F8948C91E22FE0958E238C932881F0
:10021000E223E8839FBFDF91CF9108958FB7F894D1
:10022000EC91E22BEC938FBFF6CF3FB7F89480911F
:10023000700190917101A0917201B091730126B586
:10024000A89B05C02F3F19F00196A11DB11D3FBF0E
:10025000BA2FA92F982F8827BC01CD01620F711DDD
:10026000811D911D42E0660F771F881F991F4A95D7
:10027000D1F70895AF92BF92CF92DF92EF92FF92A3
:100280000F931F93CF93DF936C017B018B01040FBE
:10029000151FEB015E01AE18BF08C017D10759F05A
:1002A0006991D601ED91FC910190F081E02DC6019C
:1002B0000995892B79F7C501DF91CF911F910F9196
:1002C000FF90EF90DF90CF90BF90AF900895FC012A
:1002D000538D448D252F30E0842F90E0821B930BAB
:1002E000541710F0CF96089501970895FC01918D51
:1002F000828D981761F0A28DAE0FBF2FB11D5D9654
:100300008C91928D9F5F9F73928F90E008958FEFF5
:100310009FEF0895FC01918D828D981731F0828DA9
:10032000E80FF11D858D90E008958FEF9FEF089500
:100330002FB7F8948091740190917501A091760186
:10034000B09177012FBF8093960190939701A0936E
:100350009801B09399018EE891E00E948A0197FF7D
:1003600026C02FB7F8948091740190917501A091E7
:100370007601B09177012FBF40919601509197017E
:100380006091980170919901841B950BA60BB70B96
:100390004091920150919301609194017091950167
:1003A00084179507A607B707B0F28FEF9FEF089560
:1003B000CF92DF92EF92FF92CF930E949801FC01BF
:1003C00097FD4EC08D32910521F0C0970A9708F035
:1003D00040C0C12CD12C7601C0E0E130F105D1F054
:1003E000ED32F105D9F1CF01C0970A9798F4AAE050
:1003F000B0E0A70196010E94A1076F01FF0FEE0870
:10040000FF08C60ED71EE81EF91E80E3C81AD108E1
:10041000E108F1088EE891E00E9476010E949801BF
:10042000FC01C0970A97C8F2E130F105B1F2CC2384
:1004300041F0F094E094D094C094C11CD11CE11C14
:10044000F11CC701B601CF91FF90EF90DF90CF90E4
:1004500008958EE891E00E947601AFCFC1E0DACF37
:10046000C12CD12C7601EDCFFC01918D228D892FED
:1004700090E0805C9F4F821B91098F7399270895AC
:100480008EE891E00E94340221E0892B09F420E0FB
:10049000822F089580E090E0892B29F00E9440028D
:1004A00081110C9400000895FC01A48DA80FB92FB0
:1004B000B11DA35ABF4F2C91848D90E001968F738C
:1004C0009927848FA689B7892C93A089B1898C91AB
:1004D000837080648C93938D848D981306C00288FA
:1004E000F389E02D80818F7D80830895EF92FF92C4
:1004F0000F931F93CF93DF93EC0181E0888F9B8D47
:100500008C8D98131AC0E889F989808185FF15C000
:100510009FB7F894EE89FF896083E889F989808123
:100520008370806480839FBF81E090E0DF91CF91F2
:100530001F910F91FF90EF900895F62E0B8D10E014
:100540000F5F1F4F0F731127E02E8C8D8E110CC083
:100550000FB607FCFACFE889F989808185FFF5CFCE
:10056000CE010E945402F1CFEB8DEC0FFD2FF11D57
:10057000E35AFF4FF0829FB7F8940B8FEA89FB890B
:1005800080818062CFCFCF93DF93EC01888D882369
:10059000B9F0AA89BB89E889F9898C9185FD03C0E6
:1005A000808186FD0DC00FB607FCF7CF8C9185FFCB
:1005B000F2CF808185FFEDCFCE010E945402E9CFBA
:1005C000DF91CF910895209166013091670128173E
:1005D000390771F49091640180916501981741F099
:1005E000E0916401F0E0EC5DFE4F808190E00895C1
:1005F0008FEF9FEF08950895EF92FF920F931F934F
:10060000CF93DF93DC015C96ED90FC905D97E11455
:10061000F10479F481E090E013969C938E93129705
:1006200090E080E0DF91CF911F910F91FF90EF90CC
:1006300008955196ED91FC91529750968C91509758
:10064000982F90950FB75E962C915E97122F12708F
:1006500021FD6095F8942081112319F1282B208326
:10066000E7012197F1F728E0462F50E0308160FF45
:100670001AC0382B3083E7012197F1F7BA0175953D
:100680006795215089F7112381F080818923808328
:100690000FBF5C968D919C910197F1F781E090E0FE
:1006A000C1CF2923DCCF3923E5CF9081892BEFCF30
:1006B00020916601309167012817390761F4809114
:1006C00065012091640190E0805C9F4F821B91093D
:1006D0008F739927089590E080E008952091660136
:1006E0003091670128173907B9F49091640180911E
:1006F0006501981789F0E0916401F0E0EC5DFE4F30
:1007000080812091640130E02F5F3F4F2F733327AA
:100710002093640190E008958FEF9FEF08958BE29E
:1007200092E00E945803892B91F08BE292E00E94A4
:100730006E0390918D01E92FF0E0E758FE4F808322
:100740009F5F90938D0181E080937801089580915F
:1007500078018130A1F4809179018A3561F480912A
:100760007D0190E08431910559F4609181016170BF
:1007700089E00E94B60010928D01109278010895D0
:100780008531910529F460918101617088E0F1CF94
:10079000469789F760918101617087E0EACF90E028
:1007A00080E008951F93CF93DF93EC01162F6AE545
:1007B0008BE292E00E94FC0265EA8BE292E00E94EA
:1007C000FC0265E08BE292E00E94FC0262E88BE2B0
:1007D00092E00E94FC02612F8BE292E00E94FC02F8
:1007E00060E08BE292E00E94FC026D2F8BE292E0CF
:1007F0000E94FC026C2F8BE292E0DF91CF911F915F
:100800000C94FC021F920F920FB60F9211242F939B
:100810003F938F939F93AF93BF9380917401909177
:100820007501A0917601B091770130916F0123E0BD
:10083000230F2D3758F50196A11DB11D20936F018F
:100840008093740190937501A0937601B093770122
:100850008091700190917101A0917201B09173012A
:100860000196A11DB11D8093700190937101A09319
:100870007201B0937301BF91AF919F918F913F919E
:100880002F910F900FBE0F901F90189526E8230F01
:100890000296A11DB11DD2CF1F920F920FB60F92DB
:1008A00011242F933F934F935F936F937F938F9375
:1008B0009F93AF93BF93EF93FF938EE891E00E94D5
:1008C0005402FF91EF91BF91AF919F918F917F91D2
:1008D0006F915F914F913F912F910F900FBE0F90AD
:1008E0001F9018951F920F920FB60F9211242F93FD
:1008F0008F939F93EF93FF93E0919E01F0919F015F
:100900008081E091A401F091A50182FD1BC090813E
:100910008091A7018F5F8F732091A801821741F00A
:10092000E091A701F0E0E257FE4F958F8093A70179
:10093000FF91EF919F918F912F910F900FBE0F908C
:100940001F9018958081F4CF1F920F920FB60F92CF
:1009500011242F933F934F935F936F937F938F93C4
:100960009F93AF93BF93EF93FF93E0916601F09154
:100970006701309749F0A685B7858585968D91FFEB
:1009800014C09C918923A1F4FF91EF91BF91AF9185
:100990009F918F917F916F915F914F913F912F9197
:1009A0000F900FBE0F901F9018959C91892361F7AF
:1009B000A389B4899C918589809589238C938689A4
:1009C00097890197F1F7608D718DA685B78555855B
:1009D00038E020E0CB010197F1F7822F90E0959568
:1009E0008795282F4C91452309F02068315091F7C5
:1009F000868D81FD20958091650190E001968F7331
:100A0000992730916401381799F0A0916501B0E001
:100A1000AC5DBE4F2C9380936501828D938D0197C1
:100A2000F1F7A389B4898C919589892B8C93ACCFEC
:100A3000868D8160868FF1CF109291011092900186
:100A400088EE93E0A0E0B0E0809392019093930150
:100A5000A0939401B093950124E031E030938F018D
:100A600020938E0125EC30E030939B0120939A0176
:100A700024EC30E030939D0120939C0120EC30E089
:100A800030939F0120939E0121EC30E03093A1012F
:100A90002093A00122EC30E03093A3012093A20127
:100AA00026EC30E03093A5012093A4011092A70119
:100AB0001092A8011092A9011092AA0110922E0280
:100AC00010922D0280932F0290933002A093310256
:100AD000B093320286E191E090932C0280932B0236
:100AE000109242021092410210924402109243026C
:100AF000109246021092450210924802109247024C
:100B0000609149026E7F6D7F6093490266956170C6
:100B100081E0682783E00E94B60061E083E00E94E4
:100B2000E400E1EBF0E0E491E0933B02EDE9F0E07A
:100B3000E491F0E0EE0FFF1FE057FF4F8591949195
:100B400090933D0280933C0260E082E00E94E400CA
:100B50008091490281FD04C061E082E00E94B600FC
:100B600082E080933702E0EBF0E0E491E09338021A
:100B7000ECE9F0E0E491F0E0EE0FFF1FEA57FF4FE1
:100B80008591949190933A028093390208957894D4
:100B900084B5826084BD84B5816084BD85B5826082
:100BA00085BD85B5816085BD80916E008160809333
:100BB0006E0010928100809181008260809381009C
:100BC00080918100816080938100809180008160AC
:100BD000809380008091B10084608093B100809107
:100BE000B00081608093B00080917A00846080932F
:100BF0007A0080917A00826080937A0080917A00F6
:100C0000816080937A0080917A00806880937A0076
:100C10001092C100E0919E01F0919F0182E08083DB
:100C2000E0919A01F0919B011082E0919C01F0917A
:100C30009D018FEC80831092A601E091A201F091BA
:100C4000A30186E08083E091A001F091A101808161
:100C500080618083E091A001F091A1018081886092
:100C60008083E091A001F091A10180818068808360
:100C7000E091A001F091A10180818F7D808310928D
:100C800046021092450210924402109243021092C2
:100C90004202109241028DE991E0909348028093C4
:100CA000470290913702963108F047C02DEB30E0B3
:100CB00030934202209341022BE931E03093440209
:100CC000209343022CE231E0309346022093450208
:100CD0002091680084E0983048F031E09E3008F4BC
:100CE00030E081E001C0880F3A95EAF7822B8093CB
:100CF00068002DE630E0983050F02BE630E09E3072
:100D000030F02CE630E0963110F030E020E0309307
:100D10003F0220933E02292F30E0983008F0E5C0D2
:100D200081E001C0880F9A95EAF780934002809194
:100D30004702909148020197F1F780914502909106
:100D40004602892B49F1E0916601F091670122E0AA
:100D5000EB32F20709F1309739F0A389B4899C91FD
:100D60008589809589238C93809149028E7F809319
:100D7000490210926501109264018BE292E0909317
:100D8000670180936601E0913E02F0913F0280810D
:100D900090914002892B808361E089E00E94E40009
:100DA00061E088E00E94E40061E087E00E94E400E6
:100DB00060E086E00E94E40028E7822E20E0922E88
:100DC000C4EBD0E000EA10E030E0A32E30E0B32E18
:100DD0008EE891E00E943402892BB1F00E94D80184
:100DE00070936E0160936D010E94D80170936C0145
:100DF00060936B010E94D80170936A01609369014E
:100E00000E94D80160936801F4018491FE01E4908E
:100E1000F801F490FF2009F475C081110E948D0043
:100E2000EF2DF0E0EE0FFF1FEA57FF4FA591B491B1
:100E30009C919E2181E0E12C09F480E0F82EF09253
:100E4000680161E170E080916D0190916E010E94F6
:100E5000D20360E170E080916B0190916C010E947F
:100E6000D20362E170E08091690190916A010E9471
:100E7000D20363E170E08F2D9E2D0E94D2030E9469
:100E80008F030E948F030E948F030E9415012B0184
:100E90003C0182E3C82ED12CE12CF12C0E941501DB
:100EA0006419750986099709683E734081059105A3
:100EB000A8F3F1E0CF1AD108E108F10828EE420EBC
:100EC00023E0521E611C711CC114D104E104F10421
:100ED00029F7A114B10409F47BCF0E9440028823B2
:100EE00009F476CF0E94000073CF9E3040F4285062
:100EF000310981E001C0880F2A95EAF716CF2E50FC
:100F00003109F7CFF12CE12C9ACF86E191E0909353
:100F10002C0280932B0280916601909167018B5285
:100F2000924071F4E0913E02F0913F0290818091F5
:100F30004002809589238083109267011092660198
:100F400008950E94AC07A59F900DB49F900DA49F9B
:100F5000800D911D11240895A29FB001B39FC0017F
:100F6000A39F700D811D1124911DB29F700D811DD5
:100F70001124911D0895EE0FFF1F0590F491E02DAF
:100F8000099410E0C2E6D0E004C0FE010E94BB0755
:0C0F90002196C336D107C9F7F894FFCFB3
:100F9C000000000076023A016701C30234027601B8
:100FAC008A0100000000FC023A01CF03FB02580347
:040FBC006E03E302DB
:00000001FF
