:100000000C9462000C948A000C948A000C948A0070
:100010000C948A000C948A000C948A000C948A0038
:100020000C948A000C948A000C948A000C948A0028
:100030000C948A000C948A000C948A000C948A0018
:100040000C94AD040C948A000C941D050C94F704D8
:100050000C948A000C948A000C948A000C948A00F8
:100060000C948A000C948A000000000023002600F3
:10007000290000000000240027002A0000000000E2
:10008000250028002B0004040404040404040202D4
:100090000202020203030303030301020408102007
:1000A0004080010204081020010204081020000012
:1000B0000008000201000003040700000000000027
:1000C00000004F0511241FBECFEFD8E0DEBFCDBF2B
:1000D00022E0A4E5B1E001C01D92A032B207E1F731
:1000E00011E0A0E0B1E0E8E2F4E102C005900D9279
:1000F000A435B107D9F710E0C2E6D0E004C02197DB
:10010000FE010E941A08C136D107C9F70E9499055D
:100110000C94120A0C940000833081F028F4813092
:1001200099F08230A9F008958730A9F08830C9F09D
:100130008430B1F4809180008F7D03C08091800075
:100140008F7780938000089584B58F7784BD08955C
:1001500084B58F7DFBCF8091B0008F778093B00006
:1001600008958091B0008F7DF9CF1F93CF93DF93D7
:10017000282F30E0F901E255FF4F8491F901E6564E
:10018000FF4FD491F901EA57FF4FC491CC23A9F056
:10019000162F81110E948C00EC2FF0E0EE0FFF1F54
:1001A000E458FF4FA591B4918FB7F894EC911111D9
:1001B00008C0D095DE23DC938FBFDF91CF911F91D4
:1001C0000895DE2BF8CFCF93DF9390E0FC01E65645
:1001D000FF4F24918A579F4FFC0184918823D1F0CF
:1001E00090E0880F991FFC01EE58FF4FA591B49144
:1001F000FC01E458FF4FC591D49161110EC09FB727
:10020000F8948C91E22FE0958E238C932881E22341
:10021000E8839FBFDF91CF9108958FB7F894EC9159
:10022000E22BEC938FBFF6CF3FB7F8948091630138
:1002300090916401A0916501B091660126B5A89BDB
:1002400005C02F3F19F00196A11DB11D3FBFBA2F68
:10025000A92F982F8827BC01CD01620F711D811D28
:10026000911D42E0660F771F881F991F4A95D1F7AD
:100270000895AF92BF92CF92DF92EF92FF920F93C9
:100280001F93CF93DF936C017B018B01040F151F2C
:10029000EB015E01AE18BF08C017D10759F0699194
:1002A000D601ED91FC910190F081E02DC6010995F8
:1002B000892B79F7C501DF91CF911F910F91FF90A5
:1002C000EF90DF90CF90BF90AF900895FC01538DD9
:1002D000448D252F30E0842F90E0821B930B541720
:1002E00010F0CF96089501970895FC01918D828DAD
:1002F000981761F0A28DAE0FBF2FB11D5D968C9146
:10030000928D9F5F9F73928F90E008958FEF9FEF84
:100310000895FC01918D828D981731F0828DE80F40
:10032000F11D858D90E008958FEF9FEF0895FC01FA
:10033000918D228D892F90E0805C9F4F821B9109C7
:100340008F739927089587E691E00E94970121E035
:10035000892B09F420E0822F089580E090E0892B1A
:1003600029F00E94A30181110C9400000895FC0162
:10037000A48DA80FB92FB11DA35ABF4F2C91848D06
:1003800090E001968F739927848FA689B7892C9363
:10039000A089B1898C91837080648C93938D848DB6
:1003A000981306C00288F389E02D80818F7D8083B9
:1003B0000895EF92FF920F931F93CF93DF93EC0179
:1003C00081E0888F9B8D8C8D98131AC0E889F989FC
:1003D000808185FF15C09FB7F894EE89FF896083FF
:1003E000E889F98980818370806480839FBF81E080
:1003F00090E0DF91CF911F910F91FF90EF900895C2
:10040000F62E0B8D10E00F5F1F4F0F731127E02E9C
:100410008C8D8E110CC00FB607FCFACFE889F989D4
:10042000808185FFF5CFCE010E94B701F1CFEB8D22
:10043000EC0FFD2FF11DE35AFF4FF0829FB7F894A8
:100440000B8FEA89FB8980818062CFCFCF93DF93C6
:10045000EC01888D8823B9F0AA89BB89E889F989DC
:100460008C9185FD03C0808186FD0DC00FB607FC11
:10047000F7CF8C9185FFF2CF808185FFEDCFCE0144
:100480000E94B701E9CFDF91CF910895089590E0E0
:1004900080E008958F929F92AF92BF920F931F9327
:1004A000CF93DF93CDB7DEB7A1970FB6F894DEBF39
:1004B0000FBECDBF19A2423008F44AE08E010F5D95
:1004C0001F4F842E912CB12CA12CA50194010E94C8
:1004D000F807E62FB901CA01EA3044F5E05DD8011A
:1004E000EE938D01232B242B252B79F790E080E0D0
:1004F000109769F0FD0101900020E9F73197AF01F5
:100500004A1B5B0BBD0184E092E00E943901A19679
:100510000FB6F894DEBF0FBECDBFDF91CF911F9114
:100520000F91BF90AF909F908F900895E95CD7CFC7
:10053000FC0101900020E9F73197AF01481B590BEE
:10054000BC0184E092E00C943901CF93DF93EC017D
:1005500060E08E810E94B50061E08E810E94B5004E
:1005600060E08E810E94B5008BE891E00197F1F781
:10057000DF91CF910895CF92DF92EF92FF920F9388
:100580001F93CF93DF936C017C0187E0E80EF11C91
:10059000D0E0C0E0062F10E0B8010C2E02C0759527
:1005A00067950A94E2F76170F70181917F010E94DB
:1005B000B5002196C430D10579F7C601DF91CF91FE
:1005C0001F910F91FF90EF90DF90CF900C94A502B8
:1005D000CF92DF92EF92FF920F931F93CF93DF930F
:1005E000EC01F62E642F8C810E94B5008D818F3F27
:1005F00019F060E00E94B5000F2D10E08F8584FF98
:1006000025C06E0187E0C80ED11CF12CE12CB80189
:100610000E2C02C0759567950A94E2F76170F60199
:1006200081916F010E94B500FFEFEF1AFF0A88E089
:10063000E816F10461F7CE01DF91CF911F910F9180
:10064000FF90EF90DF90CF900C94A502B80184E06A
:10065000759567958A95E1F7CE010E94BB026F2DD3
:10066000CE01DF91CF911F910F91FF90EF90DF901E
:10067000CF900C94BB0240E0682F84E092E00C9491
:10068000E802CF93DF93813029F0909113029860B4
:1006900090931302809317021092180280E48093C3
:1006A000190280E180931A0280E580931B0261E0C9
:1006B000809108020E94E300809109028F3F19F0A7
:1006C00061E00E94E30061E080910A020E94E30081
:1006D000C4E0D2E09E01245032408091130284FD98
:1006E0000BC084E090E021962817390744F461E0BC
:1006F0008E810E94E300EECF88E090E0F4CF8BE3A0
:100700009DE00197F1F760E0809108020E94B5003A
:1007100060E080910A020E94B500809109028F3F3B
:1007200019F060E00E94B5008091130284FD39C089
:1007300063E084E092E00E94BB02CBE4D6E4CE0109
:100740000197F1F763E084E092E00E94BB022197F9
:10075000F1F763E084E092E00E94BB0283E592E05F
:100760000197F1F762E084E092E00E94BB02809181
:10077000130280620E943B0384E0809314028CE0A9
:100780000E943B0381E00E943B038BE39FE10197C2
:10079000F1F782E08093150286E0DF91CF910C940F
:1007A0003B0380620E943B038BE496E40197F1F7E0
:1007B0008091130280620E943B0383E592E00197DF
:1007C000F1F78091130280620E943B03D0CF909199
:1007D0001702891710F08FEF890FE82FF0E0EC5F18
:1007E000FD4F848980680C943B0341E00E94E8023D
:1007F00081E090E00895CF92DF92EF92FF926C013A
:10080000990FEE08FF08F7FE16C041E06DE284E0A4
:1008100092E00E94E80266277727CB016C197D09D8
:100820008E099F094AE00E944A020196FF90EF90CC
:10083000DF90CF9008954AE0C701B601FF90EF9096
:10084000DF90CF900C944A02FC0180819181009747
:1008500011F00C94BC0808950F931F93CF93DF936E
:10086000EC0188819981009759F02A813B812617F4
:10087000370730F081E0DF91CF911F910F910895FC
:100880008B016F5F7F4F0E944509009759F0998354
:1008900088831B830A832C813D81232B59F7FC011C
:1008A0001082E8CF80E0E7CFCF93DF93EC0119828D
:1008B00018821B821A821D821C8270E060E00E94F6
:1008C0002C042881398181110FC02115310519F0BF
:1008D000C9010E94BC08198218821D821C821B82D9
:1008E0001A82DF91CF9108951D821C8268E371E026
:1008F000C901DF91CF910C940B0AEF92FF920F93F5
:100900001F93CF93DF9300D0CDB7DEB78C016983FF
:100910001A82FC01E480F580FFEFEF1AFF0AB701AD
:100920000E942C04882381F0F80120813181848188
:100930009581BE016F5F7F4F820F931F0E940B0A4C
:10094000F801F582E48281E00F900F90DF91CF9162
:100950001F910F91FF90EF9008951F920F920FB685
:100960000F9211242F933F938F939F93AF93BF9335
:1009700080915F0190916001A0916101B09162014D
:1009800030915E0123E0230F2D3758F50196A11D0C
:10099000B11D20935E0180935F0190936001A0934D
:1009A0006101B09362018091630190916401A09113
:1009B0006501B09166010196A11DB11D809363018F
:1009C00090936401A0936501B0936601BF91AF91CC
:1009D0009F918F913F912F910F900FBE0F901F907D
:1009E000189526E8230F0296A11DB11DD2CF1F92A4
:1009F0000F920FB60F9211242F933F934F935F9353
:100A00006F937F938F939F93AF93BF93EF93FF93D6
:100A100087E691E00E94B701FF91EF91BF91AF91FE
:100A20009F918F917F916F915F914F913F912F9106
:100A30000F900FBE0F901F9018951F920F920FB638
:100A40000F9211242F938F939F93EF93FF93E09135
:100A50007701F09178018081E0917D01F0917E0134
:100A600082FD1BC09081809180018F5F8F732091E8
:100A70008101821741F0E0918001F0E0E959FE4FD9
:100A8000958F80938001FF91EF919F918F912F918E
:100A90000F900FBE0F901F9018958081F4CFE7E65E
:100AA000F1E01382128288EE93E0A0E0B0E084834C
:100AB0009583A683B7838BE091E09183808385EC57
:100AC00090E09587848784EC90E09787868780EC18
:100AD00090E0918B808B81EC90E0938B828B82EC09
:100AE00090E0958B848B86EC90E0978B868B118EB3
:100AF000128E138E148EE4E0F2E0138212828DE1E6
:100B000091E0918380838CE084838FEF85838BE0F9
:100B100086838AE0878389E0808788E0818787E011
:100B200082871386148615861686178681E00C94B4
:100B30004103CF93DF93CDB7DEB762970FB6F8943A
:100B4000DEBF0FBECDBF789484B5826084BD84B50E
:100B5000816084BD85B5826085BD85B5816085BDB8
:100B600080916E00816080936E0010928100809170
:100B700081008260809381008091810081608093F8
:100B80008100809180008160809380008091B1001D
:100B900084608093B1008091B00081608093B00048
:100BA00080917A00846080937A0080917A008260DC
:100BB00080937A0080917A00816080937A0080919E
:100BC0007A00806880937A001092C100E0917701EA
:100BD000F091780182E08083E0917301F0917401DB
:100BE0001082E0917501F09176018FEC8083109274
:100BF0007F01E0917B01F0917C0186E08083E091B0
:100C00007901F0917A01808180618083E09179019E
:100C1000F0917A01808188608083E0917901F09180
:100C20007A01808180688083E0917901F0917A0176
:100C300080818F7D808384E00E94410361E086E0B3
:100C40000E94E30061E085E00E94E30061E084E04F
:100C50000E94E30060E083E00E94E3000BE31FE1F9
:100C60004DE9242E40E0342E59E8C52E50E0D52E13
:100C700060E0E62E60E0F62E87E691E00E949701A4
:100C8000892B09F457C0CE010D960E945404CE0161
:100C900007960E945404CE0101960E94540420E25B
:100CA000922EAA24AA94BA2C87E691E00E9497017A
:100CB000892B79F026E4921661F087E691E00E9494
:100CC0007501982E38E58313FAC05FEFA51AB50AAF
:100CD000EBCF42E0A416B10409F58D859E850097FF
:100CE00009F404C10E94850770935D0160935C0163
:100CF0008F819885009709F4FDC00E948507709345
:100D00005B0160935A0189819A81009709F4F6C0CA
:100D10000E9485077093590160935801CE01019696
:100D20000E942404CE0107960E942404CE010D9651
:100D30000E9424048FB7F89480905F019090600126
:100D4000A0906101B09062018FBF80915401909199
:100D50005501A0915601B0915701A5019401281B9E
:100D6000390B4A0B5B0BDA01C901C297A105B1052A
:100D70008CF06091000131E063276093000185E011
:100D80000E94B5008092540190925501A0925601A4
:100D9000B092570161E086E00E94B50061E084E016
:100DA0000E94B50081E00E943B03C8010197F1F762
:100DB00080E00E94E70385E291E00E949802809122
:100DC0005C0190915D010E94FB038FE291E00E9423
:100DD000980281E00E94E70381E391E00E9498027B
:100DE00080915A0190915B010E94FB0389E391E09D
:100DF0000E94980282E00E94E7038FE391E00E9444
:100E0000980280915801909159010E94FB038AE455
:100E100091E00E94980283E00E94E7038DE491E054
:100E20000E949802E1EBF0E08491F101B490F601A8
:100E3000A490AA2009F466C081110E948C00EA2DBA
:100E4000F0E0EE0FFF1FE859FF4FA591B4918C9190
:100E5000B82281E090E009F480E00E94FB030E9448
:100E600014012B013C0184E6882E912CA12CB12C7D
:100E70000E9414016419750986099709683E734038
:100E800081059105A8F3F1E08F1A9108A108B10836
:100E900028EE420E23E0521E611C711C8114910445
:100EA000A104B10429F7E114F10409F4E5CE0E948C
:100EB000A301882309F4D4CE0E940000D1CE682F6C
:100EC000CE010D96A114B10431F081E0A816B10451
:100ED00029F4CE0107960E947D04E6CEE2E0AE162C
:100EE000B10409F0E1CECE010196F5CF60E070E0EB
:100EF000CB01FACE60E070E0CB0101CF60E070E0A2
:100F0000CB0108CF80E090E0A8CF1F93FC01992788
:100F10008827BC01E89411911032E9F3193010F0E0
:100F20001E30C8F31B3251F01D3249F4689406C0DC
:100F30000E94AC07610F711D811D911D119110530D
:100F40001A30B0F33EF490958095709561957F4F7F
:100F50008F4F9F4F1F910895592F482F372F262FBE
:100F6000660F771F881F991F660F771F881F991FAD
:100F7000620F731F841F951F660F771F881F991FAD
:100F800008952F923F924F925F926F927F928F922D
:100F90009F92AF92BF92CF92DF92EF92FF920F9308
:100FA0001F93CF93DF93CDB7DEB7CA1BDB0B0FB612
:100FB000F894DEBF0FBECDBF09942A8839884888CF
:100FC0005F846E847D848C849B84AA84B984C88465
:100FD000DF80EE80FD800C811B81AA81B981CE0F5C
:100FE000D11D0FB6F894DEBF0FBECDBFED01089541
:100FF000A1E21A2EAA1BBB1BFD010DC0AA1FBB1F1D
:10100000EE1FFF1FA217B307E407F50720F0A21B8E
:10101000B30BE40BF50B661F771F881F991F1A94FB
:1010200069F760957095809590959B01AC01BD0125
:10103000CF010895EE0FFF1F0590F491E02D099464
:101040000F931F93CF93DF938230910510F482E0CA
:1010500090E0E0911E02F0911F0230E020E0B0E04D
:10106000A0E0309799F42115310509F44AC0281BF6
:10107000390B24303105D8F58A819B8161157105C2
:1010800089F1FB0193838283FE0111C0408151816C
:101090000281138148175907E0F04817590799F45E
:1010A000109761F012960C93129713961C93329638
:1010B000CF01DF91CF911F910F91089500931E02F0
:1010C00010931F02F4CF2115310551F04217530739
:1010D00038F0A901DB019A01BD01DF01F801C1CFA0
:1010E000EF01F9CF90931F0280931E02CDCFFE0136
:1010F000E20FF31F819391932250310939832883A2
:10110000D7CF20911C0230911D02232B41F4209156
:1011100003013091040130931D0220931C022091A1
:101120000101309102012115310541F42DB73EB77F
:101130004091050150910601241B350BE0911C02E2
:10114000F0911D02E217F307A0F42E1B3F0B2817A6
:10115000390778F0AC014E5F5F4F2417350748F030
:101160004E0F5F1F50931D0240931C028193919379
:101170009FCFF0E0E0E09CCFCF93DF930097E9F0C2
:10118000FC01329713821282A0911E02B0911F02BD
:10119000ED0130E020E01097A1F420813181820F31
:1011A000931F20911C0230911D022817390709F066
:1011B00061C0F0931D02E0931C02DF91CF9108956E
:1011C000EA01CE17DF07E8F54A815B819E014115F0
:1011D0005105B1F7E901FB83EA8349915991C40FA5
:1011E000D51FEC17FD0761F4808191810296840F71
:1011F000951FE90199838883828193819B838A83E8
:10120000F0E0E0E012968D919C9113970097B9F56C
:101210002D913C911197CD010296820F931F209141
:101220001C0230911D022817390739F6309751F505
:1012300010921F0210921E02B0931D02A0931C0276
:10124000BCCFD383C28340815181840F951FC817BF
:10125000D90761F44E5F5F4F88819981480F591F0C
:10126000518340838A819B81938382832115310539
:1012700009F0B0CFF0931F02E0931E029ECFFD0154
:10128000DC01C0CF13821282D7CFB0E0A0E0EBE444
:10129000F9E00C94C3078C01009751F4CB010E9434
:1012A00020088C01C801CDB7DEB7E0E10C94DF0760
:1012B000FC01E60FF71F9C0122503109E217F307EA
:1012C00008F49DC0D901CD91DC911197C617D707BD
:1012D00098F0C530D10530F3CE01049786179707F3
:1012E00008F3C61BD70B2297C193D1936D937C93C0
:1012F000CF010E94BC08D6CF5B01AC1ABD0A4C01DD
:101300008C0E9D1EA0911E02B0911F02512C412CEB
:10131000F12CE12C109731F580911C0290911D0267
:101320008815990509F05CC04616570608F058C0A4
:101330008091010190910201009741F48DB79EB711
:101340004091050150910601841B950BE817F907A0
:1013500008F055C0F0931D02E0931C02F90171835F
:101360006083A0CF8D919C91119712966C901297EB
:1013700013967C901397A815B90559F56C0142E0B6
:10138000C40ED11CCA14DB0420F1AC014A195B095C
:10139000DA011296159780F062827382518340833E
:1013A000D9016D937C93E114F10471F0D701139688
:1013B000FC93EE93129776CF22968C0F9D1FF90126
:1013C00091838083F301EFCFF0931F02E0931E021D
:1013D00069CF4816590608F42C017D01D3019ACF34
:1013E000CB010E9420087C01009749F0AE01B801B2
:1013F0000E94020AC8010E94BC08870153CF10E076
:1014000000E050CFFB01DC0102C001900D92415081
:101410005040D8F70895FB01DC0101900D920020A7
:08142000E1F70895F894FFCFF5
:101428000100002002800000000000D90139016697
:1014380001260297017501890100000000F50339B2
:101448000147024602426174746572793A200025A8
:101458000053706565643A2000206B6D2F68004466
:10146800697374616E63653A2000206D004C6F6388
:041478006B3A2000AB
:00000001FF
