:100000000C9462000C948A000C948A000C948A0070
:100010000C948A000C948A000C948A000C948A0038
:100020000C948A000C948A000C948A000C948A0028
:100030000C948A000C948A000C948A000C948A0018
:100040000C9443030C948A000C94B3030C948D031A
:100050000C948A000C948A000C948A000C948A00F8
:100060000C948A000C948A000000000023002600F3
:10007000290000000000240027002A0000000000E2
:10008000250028002B0004040404040404040202D4
:100090000202020203030303030301020408102007
:1000A0004080010204081020010204081020000012
:1000B0000008000201000003040700000000000027
:1000C00000000D0611241FBECFEFD8E0DEBFCDBF6C
:1000D00011E0A0E0B1E0E0E5F4E102C005900D928E
:1000E000A032B107D9F721E0A0E2B1E001C01D9232
:1000F000AA3CB207E1F710E0C2E6D0E004C02197C5
:10010000FE010E942E08C136D107C9F70E942A04B9
:100110000C94260A0C94000090E0FC01E255FF4F7D
:100120002491FC01E656FF4F3491FC01EA57FF4F42
:10013000E491EE23C9F0222339F0233001F1A8F431
:10014000213019F1223029F1F0E0EE0FFF1FE458C1
:10015000FF4FA591B4918FB7F894EC91611126C02F
:1001600030953E233C938FBF08952730A9F0283067
:10017000C9F0243049F7809180008F7D03C08091C1
:1001800080008F7780938000DFCF84B58F7784BD28
:10019000DBCF84B58F7DFBCF8091B0008F778093CC
:1001A000B000D2CF8091B0008F7DF9CF3E2BDACF57
:1001B000CF93DF9390E0FC01E656FF4F24918A57DE
:1001C0009F4FFC0184918823D1F090E0880F991F04
:1001D000FC01EE58FF4FA591B491FC01E458FF4F8C
:1001E000C591D49161110EC09FB7F8948C91E22F04
:1001F000E0958E238C932881E223E8839FBFDF91D3
:10020000CF9108958FB7F894EC91E22BEC938FBFC8
:10021000F6CF8E3008F08E508770806480937C001B
:1002200080917A00806480937A0080917A0086FDC4
:10023000FCCF809178009091790008953FB7F894B1
:100240008091C2019091C301A091C401B091C501F8
:1002500026B5A89B05C02F3F19F00196A11DB11D21
:100260003FBFBA2FA92F982F8827BC01CD01620F5D
:10027000711D811D911D42E0660F771F881F991F18
:100280004A95D1F70895AF92BF92CF92DF92EF9245
:10029000FF920F931F93CF93DF936C017B018B0130
:1002A000040F151FEB015E01AE18BF08C017D10780
:1002B00059F06991D601ED91FC910190F081E02D0A
:1002C000C6010995892B79F7C501DF91CF911F915F
:1002D0000F91FF90EF90DF90CF90BF90AF90089577
:1002E000FC01538D448D252F30E0842F90E0821B3C
:1002F000930B541710F0CF96089501970895FC01C1
:10030000918D828D981761F0A28DAE0FBF2FB11D18
:100310005D968C91928D9F5F9F73928F90E0089570
:100320008FEF9FEF0895FC01918D828D981731F02A
:10033000828DE80FF11D858D90E008958FEF9FEF7E
:100340000895FC01918D228D892F90E0805C9F4F54
:10035000821B91098F739927089580E291E00E9492
:10036000A10121E0892B09F420E0822F089580E08B
:1003700090E0892B29F00E94AD0181110C940000BE
:100380000895FC01A48DA80FB92FB11DA35ABF4F2A
:100390002C91848D90E001968F739927848FA68984
:1003A000B7892C93A089B1898C91837080648C93D8
:1003B000938D848D981306C00288F389E02D808187
:1003C0008F7D80830895EF92FF920F931F93CF93B9
:1003D000DF93EC0181E0888F9B8D8C8D98131AC080
:1003E000E889F989808185FF15C09FB7F894EE8967
:1003F000FF896083E889F9898081837080648083C4
:100400009FBF81E090E0DF91CF911F910F91FF900E
:10041000EF900895F62E0B8D10E00F5F1F4F0F73B6
:100420001127E02E8C8D8E110CC00FB607FCFACF71
:10043000E889F989808185FFF5CFCE010E94C1014D
:10044000F1CFEB8DEC0FFD2FF11DE35AFF4FF08242
:100450009FB7F8940B8FEA89FB8980818062CFCFA8
:10046000CF93DF93EC01888D8823B9F0AA89BB89EB
:10047000E889F9898C9185FD03C0808186FD0DC0D6
:100480000FB607FCF7CF8C9185FFF2CF808185FFF7
:10049000EDCFCE010E94C101E9CFDF91CF91089548
:1004A0000F931F93CF93DF93EC018881998100977D
:1004B00059F02A813B812617370730F081E0DF9120
:1004C000CF911F910F9108958B016F5F7F4F0E9415
:1004D0005909009759F0998388831B830A832C81DB
:1004E0003D81232B59F7FC011082E8CF80E0E7CF54
:1004F000CF93DF93EC0188819981009711F00E94DE
:10050000D008198218821D821C821B821A82DF91F8
:10051000CF910895CF92DF92EF92FF920F931F93A6
:10052000CF93DF93CDB7DEB728970FB6F894DEBF31
:100530000FBECDBF7C01CB014AE09E012F5F3F4F34
:100540006901B9010E943A06F60101900020E9F71D
:100550003197EC19FD09D9F0D70114960D911C9132
:100560000E0F1F1FB801C7010E9450028823F9F027
:10057000F7012081318184819581B601820F931F1B
:100580000E941F0AD70115961C930E931497C7015A
:1005900028960FB6F894DEBF0FBECDBFDF91CF9186
:1005A0001F910F91FF90EF90DF90CF900895C701BA
:1005B0000E947802ECCFEF92FF920F931F93CF939C
:1005C000DF938C017B01FB0101900020E9F731975B
:1005D000E61BF70BD1F0DC011496CD91DC91CE0F28
:1005E000DF1FBE010E9450028823B9F0F80120816C
:1005F000318184819581B701820F931F0E941F0A68
:10060000D8011596DC93CE931497C801DF91CF9152
:100610001F910F91FF90EF900895C8010E947802FA
:10062000F4CFEF92FF920F931F93CF93DF93EC01E0
:100630008617970781F0FB010081118101151105D3
:1006400039F0E480F580B7010E94500281110BC09F
:10065000CE010E947802CE01DF91CF911F910F91C0
:10066000FF90EF900895FD82EC82B8018881998116
:100670000E941F0AF0CFFC0180819181009711F048
:100680000C94D00808951F920F920FB60F92112468
:100690002F933F938F939F93AF93BF938091BE010E
:1006A0009091BF01A091C001B091C1013091BD01F5
:1006B00023E0230F2D3758F50196A11DB11D20937E
:1006C000BD018093BE019093BF01A093C001B09380
:1006D000C1018091C2019091C301A091C401B09168
:1006E000C5010196A11DB11D8093C2019093C30164
:1006F000A093C401B093C501BF91AF919F918F9119
:100700003F912F910F900FBE0F901F90189526E8E4
:10071000230F0296A11DB11DD2CF1F920F920FB6CB
:100720000F9211242F933F934F935F936F937F9377
:100730008F939F93AF93BF93EF93FF9380E291E0EA
:100740000E94C101FF91EF91BF91AF919F918F9155
:100750007F916F915F914F913F912F910F900FBEBD
:100760000F901F9018951F920F920FB60F921124A1
:100770002F938F939F93EF93FF93E0913001F0912C
:1007800031018081E0913601F091370182FD1BC07B
:100790009081809139018F5F8F7320913A01821788
:1007A00041F0E0913901F0E0E05EFE4F958F8093DB
:1007B0003901FF91EF919F918F912F910F900FBE73
:1007C0000F901F9018958081F4CFCF92DF92EF9217
:1007D000FF920F931F93E82FF92F05C001501109C5
:1007E0002109310961F1908196239417B9F305C06D
:1007F000015011092109310911F1908196239413B7
:10080000F7CFC12CD12CE12CF12C0AC08FEFC81AE4
:10081000D80AE80AF80A0C151D052E053F0579F0DF
:1008200080818623841791F36C2D7D2D8E2D9F2D35
:100830001F910F91FF90EF90DF90CF90089560E0AF
:1008400070E080E090E01F910F91FF90EF90DF90BB
:10085000CF900895CF93DF93CDB7DEB72C970FB627
:10086000F894DEBF0FBECDBF789484B5826084BD9E
:1008700084B5816084BD85B5826085BD85B58160A4
:1008800085BD80916E00816080936E001092810022
:1008900080918100826080938100809181008160DD
:1008A000809381008091800081608093800080919E
:1008B000B10084608093B1008091B000816080932A
:1008C000B00080917A00846080937A0080917A00F1
:1008D000826080937A0080917A00816080937A00B0
:1008E00080917A00806880937A001092C100E09134
:1008F0003001F091310182E08083E0912C01F09190
:100900002D011082E0912E01F0912F018FEC808358
:1009100010923801E0913401F091350186E0808336
:10092000E0913201F0913301808180618083E09118
:100930003201F0913301808188608083E09132013F
:10094000F0913301808180688083E0913201F091E1
:10095000330180818F7D808360E080E00E94D80039
:1009600061E081E00E94D80061E088E00E94D80048
:1009700060E089E00E94D80060E08FE00E94D8002B
:1009800060E08EE00E94D80044244A9423E0522E76
:10099000612C712C30E0232E30E0332E18861F821C
:1009A0001A8619861C861B8670E060E0CE010796C9
:1009B0000E945002811128C1CE0107960E94780240
:1009C0008EE00E9409016C011A8219821C821B822E
:1009D0001E821D82BE01695F7F4FCE0101960E947B
:1009E000110368E171E0CE0101960E94DB027C01F7
:1009F00024E630E0D6010E9427082BE630E040E0F4
:100A000050E00E946A07B901C7010E948A02BC0136
:100A1000CE0107960E941103CE0101960E943B036E
:100A20008FE00E9409016C011A8219821C821B82CC
:100A30001E821D82BE01695F7F4FCE0101960E941A
:100A4000110368E171E0CE0101960E94DB027C0196
:100A500020EF30E0D6010E942708A30192010E94F6
:100A60006A07B901330F880B990B0E94710622E5C2
:100A700038EB4CE252E40E94AC0621E53BE64AE941
:100A80005CE30E94AC060E94F107C7010E948A0243
:100A9000BC01CE0107960E941103CE0101960E946F
:100AA0003B0360E088E00E948C0083E090E00197C7
:100AB000F1F761E088E00E948C0083E290E001970A
:100AC000F1F760E088E00E948C00E3EAF0E06491D6
:100AD000EFE8F0E08491E82FF0E0EE0FFF1FE85917
:100AE000FF4F8591949100E412E42FE030E0462F0F
:100AF0000E94E5034B015C0181149104A104B1043F
:100B000039F0FFEF8F1A9F0AAF0ABF0A2FE0B22217
:100B10001A8219821C821B821E821D82BE01695F9D
:100B20007F4FCE0101960E94110368E171E0CE0172
:100B300001960E94DB027C01B401990C880B990B91
:100B40000E94710626E933E44BE05DE30E94AC06A7
:100B500020E030E040E05FE30E94AC060E94F10735
:100B6000C7010E948A026AE171E00E94DB02BC01B7
:100B7000CE0107960E941103CE0101960E943B030D
:100B80004B855C856F81788580E291E00E9443010E
:100B900042E050E06CE171E080E291E00E944301AC
:100BA0000E941E014B015C018AEFC82ED12CE12C62
:100BB000F12C0E941E01681979098A099B09683E77
:100BC000734081059105A8F381E0C81AD108E108B6
:100BD000F108E8EE8E0EE3E09E1EA11CB11CC114CC
:100BE000D104E104F10429F7CE0107960E943B03EA
:100BF0002114310409F4D2CE0E94AD01882309F4F6
:100C0000CDCE0E940000CACE1C861B866EE171E02C
:100C10008F8198850E941F0AD3CEE0E2F1E0138213
:100C2000128288EE93E0A0E0B0E084839583A683EF
:100C3000B7838AE091E09183808385EC90E095878B
:100C4000848784EC90E09787868780EC90E0918B96
:100C5000808B81EC90E0938B828B82EC90E0958B83
:100C6000848B86EC90E0978B868B118E128E138E80
:100C7000148E0895BB274A3031F4992322F4BDE243
:100C8000909581959F4F0C944606BB27FB015527F5
:100C9000AA27880F991FAA1FA41710F0A41B8395D9
:100CA0005051B9F7A05DAA3308F0A95DA193009750
:100CB00079F7B111B1931192CB010C945F06DC016D
:100CC000FC01672F71917723E1F7329704C07C9183
:100CD0006D9370836291AE17BF07C8F30895E894CF
:100CE00009C097FB3EF490958095709561957F4F74
:100CF0008F4F9F4F9923A9F0F92F96E9BB27939522
:100D0000F695879577956795B795F111F8CFFAF431
:100D1000BB0F11F460FF1BC06F5F7F4F8F4F9F4F62
:100D200016C0882311F096E911C0772321F09EE8C0
:100D3000872F762F05C0662371F096E8862F70E026
:100D400060E02AF09A95660F771F881FDAF7880F00
:100D50009695879597F908950E94BF060C943007E1
:100D60000E94220738F00E94290720F0952311F0F5
:100D70000C9419070C941F0711240C9464070E940B
:100D8000410770F3959FC1F3950F50E0551F629F87
:100D9000F001729FBB27F00DB11D639FAA27F00DD4
:100DA000B11DAA1F649F6627B00DA11D661F829FFB
:100DB0002227B00DA11D621F739FB00DA11D621FE0
:100DC000839FA00D611D221F749F3327A00D611DFD
:100DD000231F849F600D211D822F762F6A2F1124DF
:100DE0009F5750409AF0F1F088234AF0EE0FFF1F12
:100DF000BB1F661F771F881F91505040A9F79E3F69
:100E0000510580F00C9419070C9464075F3FE4F3DC
:100E1000983ED4F3869577956795B795F795E795BE
:100E20009F5FC1F7FE2B880F911D9695879597F9C7
:100E3000089597F99F6780E870E060E008959FEF5C
:100E400080EC089500240A94161617061806090661
:100E5000089500240A941216130614060506089530
:100E6000092E0394000C11F4882352F0BB0F40F4B8
:100E7000BF2B11F460FF04C06F5F7F4F8F4F9F4FF8
:100E8000089557FD9058440F551F59F05F3F71F07A
:100E90004795880F97FB991F61F09F3F79F08795E1
:100EA0000895121613061406551FF2CF4695F1DF6A
:100EB00008C0161617061806991FF1CF86957105FA
:100EC000610508940895E894BB2766277727CB012E
:100ED00097F90895052E97FB1EF400940E94810750
:100EE00057FD07D00E94C00707FC03D04EF40C94B6
:100EF000810750954095309521953F4F4F4F5F4F5B
:100F0000089590958095709561957F4F8F4F9F4F75
:100F100008952F923F924F925F926F927F928F929D
:100F20009F92AF92BF92CF92DF92EF92FF920F9378
:100F30001F93CF93DF93CDB7DEB7CA1BDB0B0FB682
:100F4000F894DEBF0FBECDBF09942A88398848883F
:100F50005F846E847D848C849B84AA84B984C884D5
:100F6000DF80EE80FD800C811B81AA81B981CE0FCC
:100F7000D11D0FB6F894DEBF0FBECDBFED010895B1
:100F8000A1E21A2EAA1BBB1BFD010DC0AA1FBB1F8D
:100F9000EE1FFF1FA217B307E407F50720F0A21BFF
:100FA000B30BE40BF50B661F771F881F991F1A946C
:100FB00069F760957095809590959B01AC01BD0196
:100FC000CF010895A29FB001B39FC001A39F700DF0
:100FD000811D1124911DB29F700D811D1124911D41
:100FE00008950E94F8076894B1110C94640708955D
:100FF0000E94490788F09F5798F0B92F9927B75159
:10100000B0F0E1F0660F771F881F991F1AF0BA95AC
:10101000C9F714C0B13091F00E946307B1E00895A0
:101020000C946307672F782F8827B85F39F0B93F92
:10103000CCF3869577956795B395D9F73EF490955F
:101040008095709561957F4F8F4F9F4F08950E94B7
:10105000E207B7FF0895821B930B0895EE0FFF1F61
:101060000590F491E02D09940F931F93CF93DF9394
:101070008230910510F482E090E0E091C801F09197
:10108000C90130E020E0B0E0A0E0309799F42115EC
:10109000310509F44AC0281B390B24303105D8F535
:1010A0008A819B816115710589F1FB01938382839C
:1010B000FE0111C0408151810281138148175907F7
:1010C000E0F04817590799F4109761F012960C93C5
:1010D000129713961C933296CF01DF91CF911F91F7
:1010E0000F9108950093C8011093C901F4CF211501
:1010F000310551F04217530738F0A901DB019A017D
:10110000BD01DF01F801C1CFEF01F9CF9093C90113
:101110008093C801CDCFFE01E20FF31F819391931D
:101120002250310939832883D7CF2091C6013091CD
:10113000C701232B41F42091020130910301309328
:10114000C7012093C60120910001309101012115B2
:10115000310541F42DB73EB740910401509105018E
:10116000241B350BE091C601F091C701E217F3078C
:10117000A0F42E1B3F0B2817390778F0AC014E5F07
:101180005F4F2417350748F04E0F5F1F5093C7017C
:101190004093C601819391939FCFF0E0E0E09CCF14
:1011A000CF93DF930097E9F0FC013297138212820C
:1011B000A091C801B091C901ED0130E020E0109785
:1011C000A1F420813181820F931F2091C6013091BB
:1011D000C7012817390709F061C0F093C701E093F0
:1011E000C601DF91CF910895EA01CE17DF07E8F538
:1011F0004A815B819E0141155105B1F7E901FB83ED
:10120000EA8349915991C40FD51FEC17FD0761F48A
:10121000808191810296840F951FE90199838883CB
:10122000828193819B838A83F0E0E0E012968D9126
:101230009C9113970097B9F52D913C911197CD0191
:101240000296820F931F2091C6013091C701281783
:10125000390739F6309751F51092C9011092C8013B
:10126000B093C701A093C601BCCFD383C283408192
:101270005181840F951FC817D90761F44E5F5F4FE6
:1012800088819981480F591F518340838A819B81AE
:10129000938382832115310509F0B0CFF093C90102
:1012A000E093C8019ECFFD01DC01C0CF1382128202
:1012B000D7CFB0E0A0E0EFE5F9E00C948B078C010C
:1012C000009751F4CB010E9434088C01C801CDB7BE
:1012D000DEB7E0E10C94A707FC01E60FF71F9C01C5
:1012E00022503109E217F30708F49DC0D901CD91CE
:1012F000DC911197C617D70798F0C530D10530F3A8
:10130000CE0104978617970708F3C61BD70B2297C1
:10131000C193D1936D937C93CF010E94D008D6CF17
:101320005B01AC1ABD0A4C018C0E9D1EA091C80138
:10133000B091C901512C412CF12CE12C109731F5C1
:101340008091C6019091C7018815990509F05CC08C
:101350004616570608F058C080910001909101018F
:10136000009741F48DB79EB740910401509105015B
:10137000841B950BE817F90708F055C0F093C701D7
:10138000E093C601F90171836083A0CF8D919C9198
:10139000119712966C90129713967C901397A8153C
:1013A000B90559F56C0142E0C40ED11CCA14DB0426
:1013B00020F1AC014A195B09DA011296159780F009
:1013C0006282738251834083D9016D937C93E114CF
:1013D000F10471F0D7011396FC93EE93129776CF38
:1013E00022968C0F9D1FF90191838083F301EFCF2B
:1013F000F093C901E093C80169CF4816590608F473
:101400002C017D01D3019ACFCB010E9434087C01CD
:10141000009749F0AE01B8010E94160AC8010E9467
:10142000D008870153CF10E000E050CFFB01DC0172
:1014300002C001900D9241505040D8F70895FB0131
:10144000DC0101900D920020E1F70895F894FFCFA0
:101450000000CA01800000000000E30143017001A8
:101460003002A1017F019301580046000D0A0000DF
:00000001FF
