:100000000C943B010C946C010C946C010C946C01ED
:100010000C946C010C946C010C946C010C946C01AC
:100020000C946C010C946C010C946C010C946C019C
:100030000C946C010C946C010C946C010C946C018C
:100040000C946C010C946C010C946C010C946C017C
:100050000C946C010C946C010C946C010C94B8051C
:100060000C946C010C9482050C9458050C946C0152
:100070000C946C010C946C010C946C010C946C014C
:100080000C946C010C946C010C946C010C946C013C
:100090000C946C010C946C010C946C010C946C012C
:1000A0000C946C010C946C010C946C010C946C011C
:1000B0000C946C010C946C010C946C010C946C010C
:1000C0000C946C010C946C010C946C010C946C01FC
:1000D0000C946C010C946C010C946C010C946C01EC
:1000E0000C946C010C9408030C940C030C94D40134
:1000F0000C94C0010C943F030C94ED020C9410037B
:100100000C942B030C94F2020C9439030C941A02F5
:100110000C9435030C94B1010C94E2010C946C0224
:100120000C9404030C9484010C94D1030C943103BB
:100130000C9452050C941D030C9413030C94470665
:100140000C9423030C94D2030C9427030C944303C4
:100150000C94190300002100240027002A002D0020
:100160003000330001010000040107010A01000012
:100170002200250028002B002E003100340002014F
:100180000000050108010B0100000A0B02090C0D1B
:100190000E0807030401000000000000000000003A
:1001A000000000000000000000000000000000004F
:1001B000000000001211100000000000000000000C
:1001C000000000000000000000000000000000002F
:1001D00020002300260029002C002F0032000001FF
:1001E00000000301060109010505050507050808CA
:1001F0000808020202020A0A0808040404040101B1
:1002000001010101010103030303030303030407C5
:1002100007070C0C0C0C0C0C0C0C0202020206065C
:100220000606060606060B0B0B0B0B0B0B0B01024F
:1002300010202008081020401020408002010201F8
:1002400008040201010204081020408080402010B0
:100250000804020180040201804020100804020109
:100260000804020101020408102040800102040871
:1002700010204080470611241FBECFEFD1E2DEBF21
:10028000CDBF00E00CBF12E0A0E0B2E0E2EBF1E194
:1002900000E00BBF02C007900D92AE31B107D9F755
:1002A00022E0AEE1B2E001C01D92AA3FB207E1F741
:1002B00011E0CBE3D1E000E006C021970109802FD7
:1002C000FE010E94C808CA33D10780E00807A9F7D9
:1002D0000E9491060C94D7080C94000080917B003A
:1002E000877F80937B0080E480937C0080917A00FC
:1002F000806480937A0080917A0086FDFCCF8091A3
:100300007800909179000895AF92BF92CF92DF92DA
:10031000EF92FF920F931F93CF93DF936C017B01BA
:100320008B01040F151FEB015E01AE18BF08C0174B
:10033000D10759F06991D601ED91FC910190F081BE
:10034000E02DC6011995892B79F7C501DF91CF9171
:100350001F910F91FF90EF90DF90CF90BF90AF90E3
:100360000895FC01538D448D252F30E0842F90E0BB
:10037000821B930B541710F0CF96089501970895A0
:10038000FC01918D828D981761F0A28DAE0FBF2F69
:10039000B11D5D968C91928D9F5F9F73928F90E0BF
:1003A00008958FEF9FEF0895FC01918D828D98172E
:1003B00031F0828DE80FF11D858D90E008958FEF6B
:1003C0009FEF0895FC01918D228D892F90E0805C34
:1003D0009F4F821B91098F739927089585E492E0BE
:1003E0000E94E20121E0892B09F420E0822F089588
:1003F000FC01A48DA80FB92FB11DA35ABF4F2C919A
:10040000848D90E001968F739927848FA689B78990
:100410002C93A089B1898C91837080648C93938D87
:10042000848D981306C00288F389E02D80818F7D2A
:1004300080830895EF92FF920F931F93CF93DF93E2
:10044000EC0181E0888F9B8D8C8D98131AC0E88910
:10045000F989808185FF15C09FB7F894EE89FF89DF
:100460006083E889F98980818370806480839FBF7D
:1004700081E090E0DF91CF911F910F91FF90EF907D
:100480000895F62E0B8D10E00F5F1F4F0F7311278D
:10049000E02E8C8D8E110CC00FB607FCFACFE889C8
:1004A000F989808185FFF5CFCE010E94F801F1CF57
:1004B000EB8DEC0FFD2FF11DE35AFF4FF0829FB73C
:1004C000F8940B8FEA89FB8980818062CFCF682FF7
:1004D00085E492E00C941A02CF93DF93EC01888DAF
:1004E0008823B9F0AA89BB89E889F9898C9185FDAF
:1004F00003C0808186FD0DC00FB607FCF7CF8C913D
:1005000085FFF2CF808185FFEDCFCE010E94F801FB
:10051000E9CFDF91CF91089580E090E0892B29F019
:100520000E94EE0181110E94000080E090E0892B82
:1005300049F080E090E0892B29F00E9400008111B1
:100540000E94000080E090E0892B49F080E090E07C
:10055000892B29F00E94000081110E94000080E098
:1005600090E0892B49F080E090E0892B29F00E94EF
:10057000000081110C9400000895282F30E0F9014B
:10058000E857FE4F9491F901E25DFD4F44912851E7
:100590003E4FF9012491222309F435C0992311F12A
:1005A00091509231F8F4E92FF0E08827E552FD4FA1
:1005B0008F4F0C94C8080C031003ED0204030803CA
:1005C000F202130319031D03230327032B03310333
:1005D0003503F20239033F034303809180008F7794
:1005E00080938000E22FF0E0EE0FFF1FE259FE4FF4
:1005F000A591B4918FB7F894EC91611148C04095E2
:100600004E234C938FBF0895809180008F7DE8CF5B
:1006100080918000877FE4CF84B58F7784BDE2CF5F
:1006200084B58F7DFBCF8091B0008F778093B00031
:10063000D9CF8091B0008F7DF9CF809190008F77D6
:1006400080939000CFCF809190008F7DF9CF8091E3
:100650009000877FF5CF8091A0008F778093A000D6
:10066000C1CF8091A0008F7DF9CF8091A000877FBE
:10067000F5CF809120018F7780932001B3CF8091B7
:1006800020018F7DF9CF80912001877FF5CF4E2B00
:10069000B8CFCF93DF9390E0FC01E25DFD4F249152
:1006A00088519E4FFC0184918823D1F090E0880FFF
:1006B000991FFC01EC5AFE4FA591B491FC01E2593F
:1006C000FE4FC591D49161110EC09FB7F8948C91E3
:1006D000E22FE0958E238C932881E223E8839FBF4D
:1006E000DF91CF9108958FB7F894EC91E22BEC93C2
:1006F0008FBFF6CF3FB7F8948091230290912402E8
:10070000A0912502B091260226B5A89B05C02F3FD7
:1007100019F00196A11DB11D3FBFBA2FA92F982F27
:100720008827BC01CD01620F711D811D911D42E022
:10073000660F771F881F991F4A95D1F708958F92EA
:100740009F92AF92BF92CF92DF92EF92FF924B01B6
:100750005C010E947A036B017C010E947A036C1990
:100760007D098E099F09683E734081059105A8F3B4
:1007700021E0821A9108A108B10888EEC80E83E032
:10078000D81EE11CF11C81149104A104B10429F7C5
:10079000FF90EF90DF90CF90BF90AF909F908F90A1
:1007A0000895089590E080E008950F931F93CF93EC
:1007B000DF93EC018B018AE590E00E94670285EAF5
:1007C00090E00E94670285E090E00E94670282E864
:1007D00090E00E946702C8010E94670260E085E421
:1007E00092E00E941A026D2F85E492E00E941A02A4
:1007F0006C2F85E492E0DF91CF911F910F910C94C3
:100800001A02CF93DF93EC0160E08E810E94BD025B
:1008100061E08E810E94BD0260E08E810E94BD0277
:100820008BE891E00197F1F7DF91CF910895CF9296
:10083000DF92EF92FF920F931F93CF93DF936C01A0
:100840007C0187E0E80EF11CD0E0C0E0062F10E04C
:10085000B8010C2E02C0759567950A94E2F7617095
:10086000F70181917F010E94BD022196C430D1051C
:1008700079F7C601DF91CF911F910F91FF90EF9013
:10088000DF90CF900C940104CF92DF92EF92FF9211
:100890000F931F93CF93DF93EC01F62E642F8C817F
:1008A0000E94BD028D818F3F19F060E00E94BD0261
:1008B0000F2D10E08F8584FF25C06E0187E0C80EE4
:1008C000D11CF12CE12CB8010E2C02C07595679556
:1008D0000A94E2F76170F60181916F010E94BD02F6
:1008E000FFEFEF1AFF0A88E0E816F10461F7CE0186
:1008F000DF91CF911F910F91FF90EF90DF90CF90FC
:100900000C940104B80184E0759567958A95E1F728
:10091000CE010E9417046F2DCE01DF91CF911F9160
:100920000F91FF90EF90DF90CF900C941704CF932E
:10093000DF93823029F49091F10298609093F10254
:100940008093F5021092F60280E48093F70280E132
:100950008093F80280E58093F90261E08091E602DD
:100960000E9449038091E7028F3F19F061E00E94E5
:10097000490361E08091E8020E944903C2EED2E09F
:100980009E01225E32408091F10284FD0BC084E022
:1009900090E021962817390744F461E08E810E9487
:1009A0004903EECF88E090E0F4CF8BE39DE0019720
:1009B000F1F760E08091E6020E94BD0260E0809164
:1009C000E8020E94BD028091E7028F3F19F060E0CB
:1009D0000E94BD026091F10264FD45C063E082EEB9
:1009E00092E00E941704CBE4D6E4CE010197F1F720
:1009F00063E082EE92E00E9417042197F1F763E032
:100A000082EE92E00E94170483E592E00197F1F7ED
:100A100062E082EE92E00E9417046091F10260624F
:100A200040E082EE92E00E94440484E08093F2026F
:100A300040E06CE082EE92E00E94440440E061E01D
:100A400082EE92E00E9444048BE39FE10197F1F76C
:100A500082E08093F30240E066E082EE92E0DF9174
:100A6000CF910C944404606240E082EE92E00E94D8
:100A700044048BE496E40197F1F76091F10260621F
:100A800040E082EE92E00E94440483E592E0019708
:100A9000F1F76091F102606240E082EE92E00E9424
:100AA0004404BBCF41E00E94440481E090E00895FB
:100AB0001F920F920FB60F9211240BB60F922F9325
:100AC0003F934F935F936F937F938F939F93AF93D6
:100AD000BF93EF93FF9385E492E00E94F801FF91AA
:100AE000EF91BF91AF919F918F917F916F915F91A6
:100AF0004F913F912F910F900BBE0F900FBE0F9013
:100B00001F9018951F920F920FB60F9211240BB6DB
:100B10000F922F938F939F93EF93FF93E091550242
:100B2000F09156028081E0915B02F0915C0282FDBF
:100B30001DC0908180915E028F5F8F7320915F0254
:100B4000821741F0E0915E02F0E0EB5BFD4F958F84
:100B500080935E02FF91EF919F918F912F910F9063
:100B60000BBE0F900FBE0F901F9018958081F2CF93
:100B70001F920F920FB60F9211242F933F938F93D2
:100B80009F93AF93BF9380911F0290912002A091F9
:100B90002102B091220230911E0223E0230F2D3753
:100BA00058F50196A11DB11D20931E0280931F02CE
:100BB00090932002A0932102B093220280912302FD
:100BC00090912402A0912502B09126020196A11DC8
:100BD000B11D8093230290932402A0932502B09329
:100BE0002602BF91AF919F918F913F912F910F90CE
:100BF0000FBE0F901F90189526E8230F0296A11D97
:100C0000B11DD2CFCF92DF92EF92FF920F931F933D
:100C1000E82FF92F05C0015011092109310961F1AF
:100C2000908196239417B9F305C001501109210949
:100C3000310911F1908196239413F7CFC12CD12C57
:100C4000E12CF12C0AC08FEFC81AD80AE80AF80A7A
:100C50000C151D052E053F0579F08081862384172C
:100C600091F36C2D7D2D8E2D9F2D1F910F91FF9057
:100C7000EF90DF90CF90089560E070E080E090E02A
:100C80001F910F91FF90EF90DF90CF900895E5E4D2
:100C9000F2E01382128288EE93E0A0E0B0E0848359
:100CA0009583A683B78384E092E09183808385EC6B
:100CB00090E09587848784EC90E09787868780EC26
:100CC00090E0918B808B81EC90E0938B828B82EC17
:100CD00090E0958B848B86EC90E0978B868B118EC1
:100CE000128E138E148EE2EEF2E01382128286E1EF
:100CF00092E0918380838CE084838FEF85838BE007
:100D0000868385E0878384E0808783E0818782E033
:100D100082871386148615861686178681E00C94C2
:100D20009704789484B5826084BD84B5816084BD65
:100D300085B5826085BD85B5816085BD80916E0079
:100D4000816080936E0010928100809181008260AA
:100D500080938100809181008160809381008091E7
:100D600080008160809380008091B10084608093D6
:100D7000B1008091B00081608093B00080919100BB
:100D800082608093910080919100816080939100B6
:100D9000809190008160809390008091A10082609A
:100DA0008093A1008091A10081608093A100809137
:100DB000A00081608093A0008091210182608093D7
:100DC0002101809121018160809321018091200186
:100DD00081608093200180917A00846080937A0002
:100DE00080917A00826080937A0080917A0081609D
:100DF00080937A0080917A00806880937A001092C4
:100E0000C10082E00E94970461E08DE00E944903E6
:100E100060E08DE00E94BD0261E088E00E9449032D
:100E200060E089E00E94490361E086E30E94490393
:100E300060E081E10E94490344244A9493E0592EE2
:100E4000612C712C23E0222E312C3AE3832E912C3D
:100E5000A12CB12C85E492E00E94E201892B09F4D7
:100E600093C085E492E00E94C00190913C02E92F7A
:100E7000F0E0E85DFD4F80839F5F90933C0281E04E
:100E8000809327020E946E0124E130E0DC010E9481
:100E9000D008A30192010E94DC07CA01B9010E9497
:100EA00064086093410270934202809343029093DE
:100EB000440260ED77E080E090E00E949F030E9492
:100EC0006E01EC0160E088E00E94BD02C101019763
:100ED000F1F761E088E00E94BD0283E290E00197B3
:100EE000F1F760E088E00E94BD02E7E3F2E0649180
:100EF000E1EFF1E08491E82FF0E0EE0FFF1FE25305
:100F0000FE4F8591949100E412E42FE030E0462FEB
:100F10000E940206611571058105910529F06F5F38
:100F20007F4F8F4F9F4F9F70A50194010E94DC0758
:100F300069017A01C0923D02D0923E02E0923F02E6
:100F4000F092400268EE73E080E090E00E949F0320
:100F5000609141027091420280914302909144025B
:100F60000E942C08CB0160E170E00E94D50361E192
:100F700070E0C6010E94D50362E170E0CE010E94DC
:100F8000D5030E948C0266CF80912702813009F040
:100F900079CF809128028A3551F480912C028231D8
:100FA00031F46091300261708DE00E94BD021092B8
:100FB0003C021092270266CF052E97FB1EF4009488
:100FC0000E94F30757FD07D00E94FB0707FC03D0E0
:100FD0004EF40C94F30750954095309521953F4F72
:100FE0004F4F5F4F089590958095709561957F4F15
:100FF0008F4F9F4F0895A1E21A2EAA1BBB1BFD0124
:101000000DC0AA1FBB1FEE1FFF1FA217B307E407E7
:10101000F50720F0A21BB30BE40BF50B661F771F3F
:10102000881F991F1A9469F760957095809590951F
:101030009B01AC01BD01CF010895A29FB001B39FF8
:10104000C001A39F700D811D1124911DB29F700DD1
:10105000811D1124911D08950E9433086894B111D7
:101060000C94C20808950E94A70888F09F5798F032
:10107000B92F9927B751B0F0E1F0660F771F881F9D
:10108000991F1AF0BA95C9F714C0B13091F00E94B7
:10109000C108B1E008950C94C108672F782F882704
:1010A000B85F39F0B93FCCF3869577956795B395DE
:1010B000D9F73EF490958095709561957F4F8F4F4D
:1010C0009F4F0895E89409C097FB3EF49095809552
:1010D000709561957F4F8F4F9F4F9923A9F0F92FFE
:1010E00096E9BB279395F695879577956795B7957C
:1010F000F111F8CFFAF4BB0F11F460FF1BC06F5F62
:101100007F4F8F4F9F4F16C0882311F096E911C073
:10111000772321F09EE8872F762F05C0662371F094
:1011200096E8862F70E060E02AF09A95660F771FA8
:10113000881FDAF7880F9695879597F9089557FDD8
:101140009058440F551F59F05F3F71F04795880F35
:1011500097FB991F61F09F3F79F0879508951216CC
:1011600013061406551FF2CF4695F1DF08C0161678
:1011700017061806991FF1CF869571056105089429
:101180000895E894BB2766277727CB0197F9089540
:10119000EE0FFF1F881F8BBF0790F691E02D19946B
:1011A0000E941D08B7FF0895821B930B0895F894C1
:0211B000FFCF6F
:1011B200000000001A028401B1016C02E201C001C8
:0E11C200D4010000000052058401D203D103C5
:00000001FF
